:020000040800F2
:10000000B00A0020753A00081D3800081F380008A3
:1000100021380008233800082538000800000000B7
:100020000000000000000000000000002738000869
:1000300029380008000000002B3800082D3800087F
:10004000B53A0008B93A0008BD3A0008C13A0008BC
:10005000C53A0008C93A0008CD3A0008D13A00086C
:10006000D53A0008D93A0008DD3A000835380008CA
:10007000E13A0008E53A0008E93A0008ED3A0008DC
:10008000F13A0008F53A0008F93A0008FD3A00088C
:10009000013B0008053B0008093B00083F38000809
:1000A0000D3B000857380008113B0008153B0008BD
:1000B000613800086B38000875380008193B0008E3
:1000C0001D3B0008213B0008253B0008293B000898
:1000D0002D3B0008313B0008353B0008393B000848
:1000E000953800083D3B0008413B000838B5DFF873
:1000F0008C0900F0ACFD0422DFF88419DFF88409D4
:1001000000F08CFFDFF878090068DFF87C1948817F
:10011000DFF86C094068DFF870190881DFF86009C2
:100120008068DFF86419C881DFF85409C068DFF817
:1001300058198881DFF84809C068000CDFF84819B1
:100140008880DFF83C098068000CDFF83C19C88023
:10015000DFF82C094068000CDFF82C190880DFF864
:1001600020090068000CDFF8201948800020DFF823
:100170001C19086033E0DFF81009DFF8101909686E
:1001800030F8110001F006F85FF06632DFF8003950
:1001900001F00EF804000D00DFF8F808DFF8EC18A5
:1001A000096830F8110000F0F5FF5FF03332DFF836
:1001B000E83800F0FDFF22002B0001F0CBF801F041
:1001C00085F9DFF8D018DFF8C428126821F812008A
:1001D000DFF8B8080068401CDFF8B0180860DFF8E6
:1001E000AC0800680828C6DB31BD0020DFF89C1889
:1001F000086024E0DFF89008DFF89018096830F80C
:100200001100DFF89818DFF88428126851F82210DE
:1002100088420DD2DFF87008DFF87018096830F8EE
:100220001100DFF87818DFF86428126841F822001E
:10023000DFF858080068401CDFF850180860DFF845
:100240004C0800680828D5DB70470020DFF83C1810
:10025000086024E0DFF84808DFF83018096850F833
:100260002100DFF82418DFF82428126831F8121072
:1002700088420DD2DFF81008DFF81018096830F84E
:100280001100DFF81C18DFF80428126841F822007A
:10029000DFF8F8070068401CDFF8F0170860DFF8A7
:1002A000EC0700680828D5DB70470020DFF8DC1772
:1002B000086020E0DFF8E807DFF8D017096850F899
:1002C0002110DFF8D807DFF8C427126850F82200A1
:1002D000091A48000A21B0FBF1F0DFF8C817DFF86F
:1002E000AC27126841F82200DFF8A0070068401C24
:1002F000DFF898170860DFF8940700680828D9DB52
:10030000704780B5DFF8A0070068012806D10122F8
:100310000221DFF8980701F0DBF905E00022022155
:10032000DFF8880701F0D4F9DFF87C07406801287E
:1003300007D101224FF40061DFF8740701F0C8F91A
:1003400006E000224FF40061DFF8640701F0C0F915
:10035000DFF854078068012807D101224FF480514B
:10036000DFF84C0701F0B4F906E000224FF48051A9
:10037000DFF83C0701F0ACF9DFF82C07C068012872
:1003800006D101221021DFF8240701F0A1F905E0D0
:1003900000221021DFF8140701F09AF9DFF80807AE
:1003A0000069012806D101222021DFF8000701F0B1
:1003B0008FF905E000222021DFF8F00601F088F92E
:1003C000DFF8E4064069012806D101220121DFF8A7
:1003D000DC0601F07DF905E000220121DFF8CC0602
:1003E00001F076F9DFF8C0068069012807D1012203
:1003F0004FF48071DFF8B40601F06AF906E00022DC
:100400004FF48071DFF8A40601F062F9DFF8980676
:10041000C069012807D101224FF40071DFF88C0672
:1004200001F056F906E000224FF40071DFF87C0677
:1004300001F04EF901BD70B5002400212AE0DFF87B
:10044000480630F81120DFF8540650F82130DFF864
:10045000540650F82100C3189A421AD20020DFF83F
:10046000482642F8210014E0DFF8340650F8212035
:10047000DFF8300650F82100121ADFF80C0630F8C9
:1004800011008242DBD20120DFF81C2642F8210055
:10049000641C491C0829E7DBDFF80C0640680322CE
:1004A000DFF804168968490002FB0010DFF8F81530
:1004B000C968081801F046F90500DFF8EC05006985
:1004C000DFF8E415496910EB4100DFF8DC158A69B3
:1004D000032101FB020001F035F90600002C04D1D4
:1004E0000020DFF8D0150860641C28005FF07E5102
:1004F00001F036F90AD130005FF07E5101F030F999
:1005000004D10020DFF8AC15086026E03000290097
:1005100001F034F912D2200001F042F90100280064
:1005200001F050F9DFF88C150860DFF888050068E5
:1005300090F00040DFF87C1508600EE028003100E4
:1005400001F01CF909D2200001F02AF90100300065
:1005500001F038F9DFF85C150860062C03DB012098
:10056000DFF85415086070BD70B504000D00DFF8A9
:1005700044050068DFF844150860DFF844050168A9
:10058000DFF83005006801F09BF9DFF834150860EA
:10059000DFF820050068DFF82C15096801F002FA81
:1005A000DFF824150860DFF824050168DFF80C0582
:1005B000006801F037FA0600DFF814050168DFF87B
:1005C0000005006801F02EFA310001F079F906000B
:1005D000DFF800050168DFF8F004006801F022FA96
:1005E000310001F06DF9DFF8F0140860DFF8C404A1
:1005F0000068DFF8D0140860200001F0D1F8DFF8BF
:10060000D814096801F05CF901F078FADFF8CC142D
:100610000860280001F0C4F8DFF8BC14096801F094
:10062000C1F901F06BFADFF8B8140860DFF8AC0428
:100630000068B0F57A7F04DB40F2E730DFF89C1405
:100640000860DFF89C040068B0F57A7F04DB40F2B4
:10065000E730DFF88C140860DFF8800400680028B9
:1006600003D50020DFF874140860DFF87404006814
:10067000002803D50020DFF868140860DFF85C0468
:100680000068DFF8601409688863DFF854040068C4
:10069000DFF850140968C86370BD80B501F044FAF2
:1006A00000F0C1F801F054FA01F012FB01F028FB50
:1006B00001F070FC01F08BFB01F0F0FC01F035FD66
:1006C00001F077FDDFF81C0401F05EFE0421DFF885
:1006D000140402F00DF90821DFF8080402F008F90B
:1006E000DFF8000401F05EFEDFF8FC0301F05AFEC3
:1006F000DFF8F80301F056FEDFF8F40301F052FED4
:1007000001224FF48051DFF8A40300F0E1FF012241
:100710004FF40051DFF8940300F0DAFF0020DFF817
:10072000C413096888630020DFF8B8130968C86338
:100730002FE0FFF7DBFC012002F05CF9FFF785FDFD
:10074000FFF753FDDFF8AC030068401CDFF8A4138B
:100750000860DFF8A0030068B0F5FA7FE9DBFFF777
:10076000A4FDDFF894030068401CDFF88C130860D8
:1007700001224FF40061DFF8380300F0A9FF642084
:1007800002F038F900224FF40061DFF8240300F092
:100790009FFFDFF86403006800281AD1FFF7A6FC6A
:1007A0000020DFF8E8120860DFF8E002006808289F
:1007B000EFDAB548B549096830F81100B749B34ACE
:1007C000126841F82200B1480068401CAF49086037
:1007D000EAE7DFF824030068012804D10020DFF8ED
:1007E00014130860B5E7DFF810030068032804D08D
:1007F000DFF80403006804280DD1FFF777FCDFF869
:10080000FC020168BE480068FFF715FEFFF779FD9E
:1008100000F050F8BDE7B84800680528B9D10320BA
:10082000B5490860B5E700B593B009A8282102F0E2
:10083000F5F86846142102F0F1F805A8102102F03D
:10084000EDF8012009905FF480300A9000200B90B1
:1008500001200D90022010905FF4803011905FF421
:10086000E010129009A802F0DDF8002801D000F095
:1008700051F90F20009002200190002002904FF4C7
:1008800080600390002004900221684602F0F2FA92
:10089000002801D000F03EF9022005904FF40040FE
:1008A000079005A802F024FC002801D000F032F9DE
:1008B00013B000BD9248006801281CD18F48006821
:1008C000012818D17C48006800280BD18D480068A9
:1008D000401C8C4908600020894908600020874935
:1008E000086008E00020744908600020844908601E
:1008F000002082490860704780B2B0F5005F18D1CF
:100900007F49096800290ED17F490968642903DA03
:1009100001217B4A116009E00121794A116000211F
:10092000764A116002E00021754A11600021764A82
:10093000116080B2B0F5804F18D170490968002964
:100940000ED171490968642903DA01216B4A1160EB
:1009500009E00121694A11600021694A116002E041
:100960000021664A11600021674A116080B2B0F52B
:10097000006F04D160480068401C5F490860704700
:1009800080B500686149884277D15B4800680328D8
:1009900048D15C48006802282CD0594800680128DA
:1009A00009D15B48494908604FF461714FF4CD703B
:1009B000FFF7DAFD4BE051480068012809D154489F
:1009C000424908604FF4C87140F28E30FFF7CCFD09
:1009D0003DE04D480068292839DB00203C4908608B
:1009E0000020374908604FF4487140F22F30FFF77C
:1009F000BBFD2CE043480068022828D1424800682B
:100A0000972808DB002037490968886300203549AA
:100A10000968C8631BE04FF4487140F22F30FFF7BC
:100A2000A3FD14E034480068042810D100202D49AB
:100A30000968886300202B490968C8630020304991
:100A4000086000202D49086000202E4908602E48CB
:100A50000068FA280BDA2C480068401C2A49086014
:100A600001224FF40071124800F032FE05E000222E
:100A70004FF400710E4800F02BFE01BD90010020E4
:100A8000400200206001002050020020700200207F
:100A90006666E63F600200203333D33FC00100208A
:100AA000E00100200002002020020020000C014094
:100AB000000801407C0200209C02002084020020EB
:100AC00088020020800200208C020020000000200C
:100AD0000400002008000020900200209402002062
:100AE0009802002060000020A0000020E00000200C
:100AF000200100207402002078020020A8020020BB
:100B0000A4020020A00200200C000020002C0140C4
:100B10000000704270470102F8B504000020002573
:100B200000260027002C01D101208FE0A0680028BA
:100B300001D060690028A06A002807D10020E06287
:100B4000002084F82400200001F099F9200000F032
:100B500003FAA16AC90673D4C0B2002870D1A16A91
:100B600031F4885151F00201A1626268E1690A43DF
:100B7000E16852EA41021643A168B1F5807F02D0D4
:100B8000A168012902D14FF4807100E000210D43DA
:100B90006169012911D1E168002906D1A169491EC5
:100BA000490351F400610D4307E0A16A51F02001AF
:100BB000A162E16A51F00101E1622168496831F402
:100BC00069410D4321684D6021688A68DFF8681328
:100BD0000A40324321688A60A168B1F5807F02D063
:100BE000A168012902D14FF4807100E00021B1F524
:100BF000807F02D127697F1E3F052168C96A31F4D1
:100C000070010F432168CF6221688A68DFF82C13D6
:100C10000A40B24208D10021E162A16A31F002012A
:100C200051F00101A16210E0A06A30F0020050F022
:100C30001000A062E06A50F00100E062012004E0D0
:100C4000A06A50F01000A0620120C0B2F2BD10B541
:100C50000400002094F82400012801D1022089E03A
:100C6000012084F82400200000F02EF9C0B20028F2
:100C70007CD1A26ADFF8C8120A4052F48072A262E4
:100C80002168DFF8C022914209D1DFF8BC1209685F
:100C900011F4702F01D1012102E0002100E00121B7
:100CA00000290ED0A16A31F48011A162216849683F
:100CB000490523D5A16A31F4005151F48051A16254
:100CC0001CE0A16A51F48011A1622168DFF87C2246
:100CD000914204D02168DFF86C22914205D1DFF8FF
:100CE0006812096811F4806100E00021002905D034
:100CF000A16A31F4005151F48051A162A16AC90482
:100D000004D5E16A31F00601E16201E00021E1620F
:100D1000002184F824107FF002012268116021680C
:100D2000896811F46021B1F5602F18D12168DFF8CE
:100D30001422914209D1DFF81012096811F4702FC2
:100D400001D1012102E0002100E00121002906D0AB
:100D50002168896851F4A0012268916009E0216846
:100D6000896851F480112268916002E0002184F8C2
:100D70002410C0B210BD78B4020008000021002386
:100D8000009392F82430012B01D102209AE0012334
:100D900082F824304368072B12D213685C6B1F253E
:100DA00043685E1E05235E43B540AC430568436857
:100DB0005E1E05235E43B5402C4313685C6329E047
:100DC00043680D2B12D213681C6B1F254368DE1F6E
:100DD00005235E43B540AC4305684368DE1F052329
:100DE0005E43B5402C4313681C6313E01368DC6A50
:100DF0001F254368B3F10D0605235E43B540AC43A0
:100E000005684368B3F10D0605235E43B5402C43E6
:100E10001368DC6203680A2B14D31368DC680725A7
:100E20000368B3F10A0603235E43B540AC4385680B
:100E30000368B3F10A0603235E43B5402C431368ED
:100E4000DC600FE013681C690725066803235E4316
:100E5000B540AC438568066803235E43B5402C4328
:100E600013681C610368102B02D00368112B24D176
:100E70001368364CA3421BD113689B681B021CD419
:100E800013689B6853F400031468A360006810287B
:100E900013D12F4800682F4BB0FBF3F30A204343D4
:100EA00000930098002808D00098401E0090F8E7B2
:100EB000906A50F0200090620121002082F8240006
:100EC0000800C0B272BC704738B504000020002092
:100ED000009020688068C0072BD42068806850F09C
:100EE0000100216888601A4800681A49B0FBF1F0D7
:100EF000009002E00098401E009000980028F9D170
:100F000002F084F9050020688068C00711D402F05F
:100F10007DF9401B0328F6D3A06A50F01000A062B0
:100F2000E06A50F00100E062002084F82400012013
:100F300000E0002032BD0000FDF7E1FFFE0E1FFFC4
:100F4000FEFDFFFF00280140042401400024014071
:100F50001400002040420F0038B504000020206833
:100F60008068C0071BD52068806840084000216861
:100F7000886002F04BF9050020688068C0070ED534
:100F800002F044F9401B0328F6D3A06A50F0100089
:100F9000A062E06A50F00100E062012000E0002061
:100FA00032BD000080B5416A8A6A12F0500F1CD130
:100FB000886A50F4007088620868806810F46020C5
:100FC000B0F5602F0DD1C86800280AD1886A30F4C6
:100FD00080708862886AC00403D4886A50F0010077
:100FE0008862080002F018F902E0096A096B884774
:100FF00001BD000080B5406A02F00FF901BD00009C
:1010000080B5406A816A51F040018162C16A51F045
:101010000401C16202F002F901BD0000F8B58CB014
:1010200005000E001700002095F82400012801D1CA
:10103000022071E0012085F82400DFF840010090D3
:101040000098806810F46020B0F5602F08D0A86A7E
:1010500050F02000A862002085F8240001205BE009
:101060002800FFF731FF0400E4B2002C03D16846EA
:10107000FFF72AFF0400E4B2002C48D1A96ADFF888
:101080000001014051F48071A96228684068400560
:1010900005D5A86A30F4005050F48050A8620020B2
:1010A00085F824000020E862DFF8D800296A886209
:1010B000DFF8D400296AC862DFF8D000296A086323
:1010C0007FF00200296808602868806850F480700A
:1010D000296888603B003200286810F14C01286ABA
:1010E00002F0D0F82868806810F46020B0F5602F16
:1010F00006D12868806850F4A0002968886009E05B
:101100002868806850F480102968886002E0002018
:1011100085F824002000C0B20DB0F0BD10B48CB032
:10112000002290F82430012B01D1022023E001237A
:1011300080F82430114B009303689B68DB0710D4C0
:10114000009B9B68DB070CD40368114CA34208D1B9
:1011500003685B6833F4702309680B4301684B60D4
:1011600004E0816A51F0200181620122002180F8AF
:1011700024101000C0B20CB010BC70470028014011
:10118000FEFDEFFFA50F0008F50F00080110000895
:1011900000240140014648B1B0FA80F18840C91CE2
:1011A000C1F58461090501EBD021400570470000BD
:1011B000B0B581EA030C0CF0004C40F2FF7515EA63
:1011C00011541DBF15EA1357AC42AF4239E0E41980
:1011D00023EA455343F48013C90241F0004141EA38
:1011E000505EC7021100A7FB020200284FF000006A
:1011F000EEFB01204FF00001E3FB072118BF42F096
:101200000102401800214941E3FB0E01A4F580646E
:101210000F0302D252004041494154F101046CDDF8
:10122000470872F1004250F1000051EB0451A1F562
:1012300080115CBF41EA0C01B0BD4CEA05510020B1
:10124000B0BD05EA1357AC4214BFAF4241E050EACB
:10125000410E1CBF52EA430E02E061460020B0BDC1
:1012600024423C441BD15FEA070EF6D0090302BFBB
:1012700001460020AEF1140EB1FA81F7AEEB07047F
:1012800001FA07FE0C37C7F1200100FA07F7C84042
:101290004EEA000E23EA455343F48013A2E733F0ED
:1012A0000043B3FA83F704BFB2FA82FE77440B3FE0
:1012B000E41BB7F1200E2FBF02FA0EF3BB40C7F1BB
:1012C000200E22FA0EFE38BF43EA0E03BA40641C19
:1012D00082E750EA410E14BF52EA430E6FF000015C
:1012E0004FF4001717EB430F8ABF194617EB410F56
:1012F000B5E74CEA05510020B0BDD4F10104B4F1CA
:1013000020070FDAC4F12007520828BF42F001027B
:1013100010FA07F501FA07F7E1BF2A43E040384326
:10132000E1400FE0352C98DCC7F1200452EA40027E
:1013300020FA07F218BF42F0010231FA07F0A1408B
:101340000A43002172F1004250F1000051EB0C0100
:10135000B0BD000070B44FF0004591EA030F42F1B8
:10136000AD806B40841A71EB030604D26E40001B03
:10137000B141121973414FF4001C1CEB410F34BFF3
:101380007CEB430682E00C0DA4EB1356362E7BDC7F
:10139000012E45EAC32341DC43EA525312BFD20275
:1013A00092025B08240545EAC12141EA5051D2EB83
:1013B000C020994125D407D1B0FA80F610FA06F181
:1013C00062D00020203608E0B1FA81F6B140C6F1C3
:1013D000200220FA02F21143B0404FEAF474B4EB59
:1013E000465434F001064FEA74040AD8D6F50016C4
:1013F000760D04F00044F04061FA06F25040F140EE
:101400004840C00A40EA415021F0004128BF5FEA4D
:10141000500550F1000044EBD12135E0DB0A45EAEC
:10142000C121C90AB6F120050EDD42EA0242120CC2
:10143000C5F1200603FA06F6EB4042EA06056D42C6
:10144000984161F100010DE062FA06F5F240554065
:1014500063FA06FC82EA0C02F3405A406D42904166
:1014600061EB030111F4801F05D1641E620502D0F7
:101470006D004041494121F48011430875F100435A
:1014800050F1000041EB045170BC70471CEB410F60
:1014900015D223F0004352EA43060BD04FEA4C0C1E
:1014A000BCEB410F04D80C0D661E342EB7DDEBE704
:1014B000801A994150EA410608BF0021E4E708BFBD
:1014C0001CEB430F28BF6FF00001DDE7C1F30A53A7
:1014D00040F2FE329B1A14DDD3F120034FEAE17291
:1014E00008DDC90241EA505141F00040D84080185F
:1014F0005040704703F2E13010B1D24382F0004017
:101500007047002070470000F8B40200002000205F
:1015100000200025002000231AE0DFF8E401006825
:1015200030EA0404DFF8D801046010E0DFF8D401E9
:101530000068A043DFF8CC61306048688002ECD5D9
:10154000DFF8BC0100680443DFF8B40104605B1CF1
:10155000102B80F0BB8001269E400C683440B442C2
:10156000F5D14868002827D001281AD002281DD0BC
:1015700003282FD0112816D012281AD0624FB84253
:101580001AD0624FB84217D0614FB84214D0614FA1
:10159000B84211D0604FB8420ED0604FB8420BD065
:1015A0001AE0CD6818E0CD682D1D15E0CD6808352E
:1015B00012E0CD680C350FE08868002801D10425C1
:1015C00007E08868012802D10825166101E0082596
:1015D000566101E00025FFE7B4F5807F01D21000DD
:1015E00000E0101DB4F5807F01D29E0002E0B3F14F
:1015F0000806B60007685FF00F0C1CFA06FC37EA15
:101600000C0715FA06F63E4306604868C0009ED5F2
:101610004348006850F00100414E30604048006887
:1016200010F00100009000983E481E00B60850F8E7
:1016300026600F2713F00300C0B280008740BE432E
:101640003948824201D100270FE03848824201D157
:1016500001270AE03648824201D1022705E03548D9
:10166000824201D1032700E0042713F00300C0B237
:10167000800087403E432B481F00BF0840F827608A
:101680004868C00305D52C48006820432A4E3060C6
:1016900004E029480068A043274E30604868800372
:1016A00005D5264800682043244E306004E02348D6
:1016B0000068A043214E30604868C0027FF536AF15
:1016C0001048006820430F4E306036E7F1BC704789
:1016D000D2B2002A02D089B2016102E089B20904C3
:1016E0000161704780B51649096880B2014205D092
:1016F00080B21349086080B2FFF7FEF801BD000018
:101700000C040140080401400000111000001210F8
:1017100000002110000022100000311000003210E3
:10172000181002400800014000080140000C014070
:101730000010014000140140000401400404014075
:101740001404014000280AD0B0FA80F18840D1F199
:101750009D01C905020672F1004241EB102070475D
:1017600040EA010C1CEB0C0F07D0884205D14FEA70
:10177000400C1CF1807F98BF804270474FF0807C06
:101780001CEB400F94BF1CEB410F05E040EA010C3D
:101790001CEB0C0F01D28842704718BF8142704782
:1017A000C2175040801AB0FA80F10AD08840D1F1B7
:1017B0009D01D20742EAC151020672F1004241EB9B
:1017C0001020704710B5FF2313EAD0541DBF13EA51
:1017D000D1529C429A4239E0A41ADA0780EA010306
:1017E000134042EA012142EA0020421A3CBF641E33
:1017F00001EB4202090AB2FBF1FE01FB1E221202BA
:10180000B2FBF1F001FB10226EF30F201202B2FBCB
:10181000F1FE4EEA00207F3406DDFE2C24DA53EA86
:10182000500050EBC45010BDD4F1020401FB1E2245
:1018300040F08071192C1DDC21FA04F0C4F1200461
:10184000A140114371F10042584110BD9C421ABFA2
:1018500003EAD1529A420FE080EA010E0EF00043F3
:10186000400004D0490016D143F0FF4010BD4900AC
:1018700008BFD343180010BD9C4205D1D21AF7D03F
:1018800001F00041484010BD4A0212BF08464840DE
:1018900000F0004010BD4AB90902B1FA81F291404E
:1018A00044B1A418C00140F000409EE7C90141F0D6
:1018B000004152420002B0FA80F4A040141B94E7A9
:1018C00090EA010F40F1748081F00041431A4FF01B
:1018D00000423EBF5340C01AC91800BFD3095FEA97
:1018E000D05C13EB400F34BFB3EB410F40E07CEB17
:1018F000D1530CD342EA012122D8D1EB402009D3A5
:10190000400A28BF5FEA500140EBCC507047401AB4
:1019100015D04002B0FA80F2521C9040400A4FEAC3
:101920003C23B3EB026384BF00EB730007E040F499
:1019300000001A16DB07C2F10102D04018437047BD
:10194000182BFCDC31FA03F202FA03F3591A38BF00
:1019500042F00102D2EB40203CBF4000ACF1010C50
:101960005FEACC5CC20572F100414CEB502070473D
:1019700013EB400F0FD2C94209D0ACEBD153022B6D
:1019800003DB4902172BDDDD70479143401AC0424B
:10199000D5D10020704713EB410FD0D36FF000007A
:1019A0007047000090EA010F7FF590AF81F0004191
:1019B000421A3CBF801A89184FF0004CC0F3C7523E
:1019C000FF2A24D0C1F3C75313B3D21AD2F119039B
:1019D00027DD4CEA01214CFA03F321EA0303D1404D
:1019E000C20D4CEA0020401834BF20EA0C004CEA3B
:1019F0005000D20553EA006373EB0C0C52EB10203D
:101A0000420012F1807F38BF7047C00DC00570479B
:101A1000490212BF9A4200EB5120F8E7D2F11703B6
:101A2000D9D57047FF2212EAD05C1DBF12EAD1530C
:101A3000944593422BE09C44D30780EA01021A406C
:101A400043EA002043EA0121A1FB0030C04238BF35
:101A500040007CF17F010BDBFE294ADA5B0842EA99
:101A6000C15153EA006373F1004C51EB10207047F1
:101A7000D1F1080CDCF120012FDB5B0810FA01F139
:101A80000B4320FA0CF073F100415041704794452C
:101A90001CBF02EAD153934280EA010202F00042E5
:101AA0001DD0400019D0490017D05BB9634514D050
:101AB0000902B1FA81F39940BCEB030CC00140F07C
:101AC0000040C1E70002B0FA80FC10FA0CF0B3EB62
:101AD0000C0CC90141F00041B6E71000704740000E
:101AE0000AD0490008D010F1807F94BF11F1807FA7
:101AF00002E042F0FF407047D0437047C0F3C75147
:101B00007E390EDDC217D1F1200106DD000240F062
:101B10000040C840104450407047D04380F000401F
:101B2000704700207047000080B50848006850F0FA
:101B3000100006490860032001F08EFD002001F02E
:101B4000B9FD01F0DDFD002002BD000000200240D3
:101B500000B585B06846102100F060FF5648006867
:101B600050F01000544908605348006810F010000D
:101B7000049004985048006850F020004E490860D6
:101B80004D48006810F02000049004984A4800680E
:101B900050F00400484908604748006810F004000D
:101BA000049004984448006850F0080042490860D6
:101BB0004148006810F0080004900498002243F2A5
:101BC00033313E48FFF784FD00224FF4D0513C48AA
:101BD000FFF77EFD4FF4C04000903A48019002208C
:101BE000029069463848FFF78FFC40F2333000908E
:101BF00001200190012002900220039069462F48A5
:101C0000FFF782FC4FF4006000902E480190022004
:101C1000029069462948FFF777FC4FF44050009046
:101C20000120019000200290022003906946234881
:101C3000FFF76AFC4FF40140009024480190012016
:101C4000029069461E48FFF75FFC4FF40070009059
:101C5000012001900020029002200390694618485C
:101C6000FFF752FC4FF4C05000900120019001207A
:101C700002900220039069461148FFF745FCC020FE
:101C80000090124801900120029069460B48FFF72E
:101C90003BFC00220021172001F0E2FC172001F09C
:101CA000F0FC00220021282001F0DAFC282001F0BD
:101CB000E8FC05B000BD00BF18100240000C014058
:101CC0000008014000001110001001400000311018
:101CD00080B50A48006850F00100084908600748CC
:101CE000006810F0010000900098002200210B20F5
:101CF00001F0B6FC0B2001F0C4FC01BD1410024041
:101D0000F8B59B4800680390684600210022002334
:101D100080E80E009748984908604FF48070964913
:101D2000886001209449C8600020934948615FF4AD
:101D300060209149C86100208F49486004208E4985
:101D400008618D48FEF7E8FE002801D0FEF7E2FEAC
:101D50005FF4C020039003A98748FFF7DFF900284C
:101D600001D0FEF7D7FE0020009001200190002056
:101D7000029069468048FEF7FEFF002801D0FEF77A
:101D8000C9FE012000900220019069467A48FEF7C2
:101D9000F2FF002801D0FEF7BDFE022000900320D4
:101DA000019069467448FEF7E6FF002801D0FEF76F
:101DB000B1FE032000900420019069466E48FEF7B2
:101DC000DAFF002801D0FEF7A5FE05B000BDE0B5A2
:101DD000684600210022002380E80E006748684919
:101DE00008604FF480706649886001206449C860CB
:101DF0000020634948615FF460206149C8610020A8
:101E00005F49486004205E4908615D48FEF784FE32
:101E1000002801D0FEF77EFE0420009001200190F2
:101E20000020029069465648FEF7A5FF002801D021
:101E3000FEF770FE05200090022001906946504890
:101E4000FEF799FF002801D0FEF764FE06200090FF
:101E50000320019069464A48FEF78DFF002801D013
:101E6000FEF758FE07200090042001906946444880
:101E7000FEF781FF002801D0FEF74CFE07BD18B524
:101E800085B0040001A8102100F0C8FD2068394980
:101E9000884246D13B48006850F4007039490860D8
:101EA0003848006810F400700090009835480068C9
:101EB00050F00400334908603248006810F0040014
:101EC000009000980F2001900320029001A92E4855
:101ED000FFF71AFB2D482E49086000202C49486066
:101EE00000202B49886080202949C8604FF4007089
:101EF000274908614FF400602549486120202449A2
:101F000088614FF400502249C861214801F088F9E6
:101F1000002801D0FEF7FEFD1D4820621C484462E7
:101F200023E02068154988421FD11648006850F404
:101F30008060144908601348006810F480600090C5
:101F400000981048006850F004000E4908600D48E1
:101F5000006810F0040000900098F0200190032029
:101F6000029001A90848FFF7CFFA06B010BD0000A3
:101F7000B03A000800240140600100200028014020
:101F800090010020181002400008014008000240A3
:101F90001C00002080B590B0DFF8B403D0E9002326
:101FA000CDE9002302A81C2100F038FD09A81C215E
:101FB00000F034FDDFF89C03DFF89C130860472035
:101FC000DFF8941348600020DFF88C13886040F23B
:101FD000E730DFF88413C8600020DFF87C13086165
:101FE0000020DFF8741348610020DFF86C1388616B
:101FF000DFF8640300F000FA002801D0FEF78AFD44
:1020000000200090002001906946DFF84C0300F0AA
:10201000B4FC002801D0FEF77DFD6020029040F264
:10202000F3100390002004900020059000200690FB
:102030000020079000200890042202A9DFF818036E
:1020400000F0E0FA002801D0FEF764FD082202A9A2
:10205000DFF8040300F0D6FA002801D0FEF75AFD9D
:102060000020099000200A9000200B9000200C9086
:1020700000200D904FF400500E9000200F9009A901
:10208000DFF8D40200F048FC002801D0FEF742FD42
:10209000DFF8C40200F037F911B000BD00B589B017
:1020A000DFF8B802D0E90023CDE9002302A81C2103
:1020B00000F0B4FC5FF08040DFF8A4120860472015
:1020C000A74948600020A649886042F20F70A449E1
:1020D000C8600020A24908610020A1498861A04889
:1020E00000F06EF9002801D0FEF714FD00200090EA
:1020F0000020019069469A4800F03FFC002801D07A
:10210000FEF708FD002002900020039000200490BC
:1021100000200690002202A9914800F044FA00280D
:1021200001D0FEF7F7FC09B000BD00B589B08D48BD
:10213000D0E90023CDE9002302A81C2100F06EFCA9
:1021400089488A49086047208849486000208749B3
:10215000886042F20F708549C86000208349086199
:10216000002082498861814800F02AF9002801D0C6
:10217000FEF7D0FC002000900020019069467B48CB
:1021800000F0FBFB002801D0FEF7C4FC0020029009
:10219000002003900020049000200690002202A955
:1021A000724800F000FA002801D0FEF7B3FC09B035
:1021B00000BD00B589B06E48D0E90023CDE9002309
:1021C00002A81C2100F02AFC6A486B4908604720DD
:1021D0006949486000206849886040F2E7306649F4
:1021E000C860002064490861002063498861624832
:1021F00000F0E6F8002801D0FEF78CFC00200090EB
:102200000020019069465C4800F0B7FB002801D02F
:10221000FEF780FC00200290002003900020049034
:1022200000200690002202A9534800F0BCF90028C3
:1022300001D0FEF76FFC09B000BD80B500684549CC
:10224000884213D14D48006850F400604B49086043
:102250004A48006810F400600090009800220021B5
:10226000192001F0FDF9192001F00BFA01BD80B52C
:102270000168B1F1804F14D14148006850F001006D
:102280003F4908603E48006810F001000090009847
:10229000002200211C2001F0E3F91C2001F0F1F9DB
:1022A00030E00168304A914214D13548006850F05E
:1022B0000200334908603248006810F002000090C4
:1022C0000098002200211D2001F0CAF91D2001F014
:1022D000D8F917E000682749884213D128480068D8
:1022E00050F00400264908602548006810F00400FA
:1022F00000900098002200211E2001F0B1F91E205C
:1023000001F0BFF901BD18B585B0040001A8102186
:1023100000F084FB20680F49884216D117480068F6
:1023200050F00800154908601448006810F00800D3
:10233000009000984FF4404001900220029003204A
:10234000049001A90F48FFF7DFF806B010BD0000A8
:10235000903A0008002C014060000020983A0008E4
:10236000A0000020A03A000800040040E000002087
:10237000A83A000800080040200100201810024080
:102380001C100240000C0140022180F83D10016841
:10239000096851F0010102681160012180F83D10C7
:1023A000002070470168C96851F001010268D160DE
:1023B0000168096851F00101006801600020704760
:1023C00010B50400002C01D1012014E094F83D0068
:1023D000002805D1002084F83C002000FFF747FFCB
:1023E000022084F83D00211D206800F089F90120B9
:1023F00084F83D00002010BD10B50400002C01D170
:10240000012014E094F83D00002805D1002084F854
:102410003C002000FFF711FF022084F83D00211D41
:10242000206800F06DF9012084F83D00002010BD07
:1024300010B504002068006980071AD52068C068BC
:10244000800716D57FF002002168086101202077FF
:102450002068806910F0030F03D0200001F07AF9A2
:1024600005E0200001F077F9200001F075F9002067
:1024700020772068006940071AD52068C0684007A7
:1024800016D57FF0040021680861022020772068BB
:10249000806910F4407F03D0200001F05BF905E073
:1024A000200001F058F9200001F056F900202077B3
:1024B0002068006900071AD52068C068000716D593
:1024C0007FF0080021680861042020772068C06937
:1024D00010F0030F03D0200001F03CF905E02000CC
:1024E00001F039F9200001F037F900202077206849
:1024F0000069C0061AD52068C068C00616D57FF0EE
:10250000100021680861082020772068C06910F455
:10251000407F03D0200001F01DF905E0200001F00C
:102520001AF9200001F018F90020207720680069CE
:10253000C0070AD52068C068C00706D57FF0010033
:10254000216808612000FEF71BFA20680069000678
:102550000AD52068C068000606D57FF08000216893
:102560000861200001F0F9F82068006940060AD5EA
:102570002068C068400606D57FF0400021680861E9
:10258000200001F0EBF82068006980060AD5206879
:10259000C068800606D57FF0200021680861200011
:1025A00001F0DDF810BD10B5040094F83C000128DE
:1025B00001D1022025E0012084F83C00022084F8AB
:1025C0003D00002A06D0042A08D0082A0AD00C2A86
:1025D0000CD00FE0206800F0C6F80BE0206800F097
:1025E000F2F807E0206800F023F903E0206800F02B
:1025F00053F9FFE7012084F83D00002084F83C00F7
:10260000002010BD38B504000D0094F83C000128EE
:1026100001D1022073E0012084F83C00022084F8FC
:102620003D00002A06D0042A1BD0082A31D00C2AEB
:1026300046D05DE02900206800F095F820688069A8
:1026400050F00800216888612068806930F004003B
:102650002168886120688169286901432068816157
:1026600046E02900206800F0AEF82068806950F448
:102670000060216888612068806930F4806021688A
:10268000886120688069296950EA01202168886191
:102690002EE02900206800F0CBF82068C06950F0D7
:1026A00008002168C8612068C06930F00400216812
:1026B000C8612068C169286901432068C16117E0C9
:1026C0002900206800F0E8F82068C06950F4006034
:1026D0002168C8612068C06930F480602168C861E1
:1026E0002068C069296950EA01202168C861FFE7B4
:1026F000012084F83D00002084F83C00002032BD19
:1027000000220368774A904208D0B0F1804F05D08C
:10271000754A904202D0754A904203D133F070035B
:102720004A6813436F4A904208D0B0F1804F05D0F9
:102730006D4A904202D06D4A904203D133F4407307
:10274000CA68134333F080034A69134303608A68FD
:10275000C2620A688262634A904201D109690163D8
:1027600001214161704730B4002200220022026A38
:10277000520852000262046A4568836933F07003AC
:102780009B089B000A68134334F002048A681443D0
:10279000544A904205D134F00804CA68144334F016
:1027A0000404504A904207D135F4807535F4007521
:1027B0004A6915438A6915434560836149684163E5
:1027C000046230BC704730B4002200220022026A4A
:1027D00032F010020262036A4468826932F4E04215
:1027E00032F440720D6852EA052233F020038D68FE
:1027F00053EA05133B4DA84206D133F08003CD6860
:1028000053EA051333F04003364DA84209D134F49E
:10281000806434F400644D6954EA85048D6954EA97
:1028200085044460826149688163036230BC7047FB
:1028300030B4002200220022026A32F48072026266
:10284000046A4568C36933F070039B089B000A68FB
:10285000134334F400748A6854EA0224214A9042F3
:1028600006D134F40064CA6854EA022434F4806463
:102870001C4A904209D135F4805535F400554A6917
:1028800055EA02158A6955EA02154560C36149682F
:10289000C163046230BC704730B4002200220022C1
:1028A000026A32F480520262036A4468C26932F4F6
:1028B000E04232F440720D6852EA052233F40053CC
:1028C0008D6853EA0533074DA84204D134F480449F
:1028D0004D6954EA85144460C26149680164036229
:1028E00030BC7047002C014000040040000800404C
:1028F00010B504000422206800F06CF82068406CD9
:1029000050F40040216848642068006850F00100DD
:1029100021680860002010BD002390F83C20012AA7
:1029200001D1022028E0012280F83C201B0A1B0272
:10293000CA68134333F440738A68134333F48063E3
:102940004A68134333F400630A68134333F4805333
:102950000A69134333F400534A69134333F4804341
:102960008A69134333F4004389690B4301684B645C
:10297000002180F83C100020704790F83C20012A8C
:1029800001D1022024E0012280F83C20022280F8BC
:102990003D200268526832F0700203685A60026893
:1029A00053680A681343026853600268926832F001
:1029B000800203689A600268926849680A43016865
:1029C0008A60012180F83D10002180F83C10002031
:1029D0007047000010B4002304238B40046A34EADB
:1029E00003030362036A12FA01F11943016210BC86
:1029F0007047000038B5040000F008FC050014F131
:102A0000010F02D004480078041900F0FFFB401BBE
:102A1000A042FAD331BD00BF18000020002200F010
:102A20009FBE00007CB5040000202078C00740F164
:102A30008480DFF88006006810F00C0004280BD0BA
:102A4000DFF87006006810F00C0008280ED1DFF8DF
:102A500064060068C00309D5DFF8540600688003E7
:102A60006BD56068002868D1012002E26068B0F58B
:102A7000803F08D1DFF83806006850F48030DFF876
:102A80003016086038E06068002810D1DFF82006B2
:102A9000006830F48030DFF818160860DFF81006A0
:102AA000006830F48020DFF80816086024E06068D1
:102AB000B0F5A02F10D1DFF8F805006850F48020A1
:102AC000DFF8EC150860DFF8E805006850F48030A6
:102AD000DFF8DC1508600FE0DFF8D405006830F49B
:102AE0008030DFF8CC150860DFF8C405006830F4EA
:102AF0008020DFF8BC150860606800280ED000F068
:102B000085FB0500DFF8A8050068800315D400F0F8
:102B10007DFB401B6528F5D30320AAE100F076FB7E
:102B20000500DFF88C050068800306D500F06EFB19
:102B3000401B6528F5D303209BE12078800726D52C
:102B4000DFF87005006810F00C0F0BD0DFF864059B
:102B5000006810F00C00082833D1DFF85805006831
:102B6000C0032ED4DFF848050068800704D520692B
:102B7000012801D001207CE1DFF83405006830F045
:102B8000F800616950EAC100DFF824150860207878
:102B900000074ED5A069002800F081800120DFF8F1
:102BA0002415086000F032FB0500DFF8140500680A
:102BB00080073BD400F02AFB401B0328F5D30320F9
:102BC00057E1206900281ED00120DFF8FC140860BE
:102BD00000F01CFB0500DFF8D8040068800706D46D
:102BE00000F014FB401B0328F5D3032041E1DFF87C
:102BF000C004006830F0F800616950EAC100DFF8F5
:102C0000B0140860C3E70020DFF8BC14086000F0CF
:102C1000FDFA0500DFF8980400688007B7D500F0DA
:102C2000F5FA401B0328F5D3032022E1012000F030
:102C30002CFA2078400740F1B9800025DFF88C0499
:102C40000068C0000FD4DFF88404006850F08050A2
:102C5000DFF878140860DFF87404006810F0805022
:102C6000009000980125DFF868040068C00529D4A9
:102C7000DFF85C04006850F48070DFF854140860DA
:102C800000F0C4FA0600DFF848040068C00519D453
:102C900000F0BCFA801B6528F5D30320E9E0002092
:102CA000DFF82014086000F0B1FA0500DFF8100426
:102CB00000688007BDD500F0A9FA401B0328F5D3B2
:102CC0000320D6E0E068012808D1DFF80804006896
:102CD00050F00100DFF8FC13086037E0E0680028DE
:102CE00010D1DFF8F003006840084000DFF8E4137B
:102CF0000860DFF8E003006830F00400DFF8D41368
:102D0000086023E0E068052810D1DFF8C8030068F8
:102D100050F00400DFF8BC130860DFF8B803006867
:102D200050F00100DFF8AC1308600FE0DFF8A403F7
:102D3000006840084000DFF89C130860DFF8940347
:102D4000006830F00400DFF88C130860E0680028A9
:102D500010D000F05BFA0600DFF878030068800707
:102D600019D400F053FA801B41F289318842F3D321
:102D700003207EE000F04AFA0600DFF858030068FE
:102D8000800708D500F042FA801B41F28931884261
:102D9000F3D303206DE0EDB2012D07D1DFF82C0352
:102DA000006830F08050DFF824130860E0690028E4
:102DB0005ED0DFF80003006810F00C00082855D042
:102DC000E06902283FD10020DFF80C13086000F012
:102DD0001DFA0500DFF8D8020068800106D500F072
:102DE00015FA401B0328F5D3032042E0206AB0F512
:102DF000803F09D1DFF8BC02016831F40031A068DE
:102E00000143DFF8B0020160DFF8A802016831F485
:102E10007411206A0143606A0143DFF8980201607F
:102E20000120DFF8B412086000F0F0F90400DFF8C8
:102E30008002006880011BD400F0E8F9001B032821
:102E4000F5D3032015E00020DFF88C12086000F0B5
:102E5000DDF90400DFF858020068800108D500F0B1
:102E6000D5F9001B0328F5D3032002E0012000E080
:102E7000002076BD70B504000D000020DFF85C0274
:102E8000006810F00700A84211D2DFF85002006875
:102E9000C008C0002843DFF844120860DFF83C0295
:102EA000006810F00700A84201D00120BAE02078A5
:102EB00080071FD52078400707D5DFF8F8010068A4
:102EC00050F4E060DFF8EC1108602078000707D5C7
:102ED000DFF8E001006850F46050DFF8D8110860B6
:102EE000DFF8D001016831F0F001A0680143DFF89C
:102EF000C40101602078C00759D56068012806D157
:102F0000DFF8AC010068800312D401208AE0606819
:102F1000022806D1DFF898010068800108D401205A
:102F200080E0DFF88C010068800701D4012079E09F
:102F3000DFF8800101688908890060680143DFF8D3
:102F40007401016000F062F90600606801280ED18A
:102F50005848006810F00C00042828D000F056F9FA
:102F6000801B41F289318842F2D303205AE0606825
:102F700002280ED14F48006810F00C00082816D027
:102F800000F044F9801B41F289318842F2D30320DA
:102F900048E04848006810F00C0F08D000F036F9FF
:102FA000801B41F289318842F3D303203AE04B4839
:102FB000006810F0070085420ED248480068C0083B
:102FC000C0002843454908604448006810F00700E5
:102FD000A84201D0012025E02078400707D53548D8
:102FE000016831F4E061E068014332480160207813
:102FF000000708D52F48006830F46050216950EA76
:10300000C1002C49086000F00EF83549294A1268C1
:10301000C2F30312895CC84028490860002000F010
:1030200049FB002070BD00B585B001A82D491022D4
:1030300000F0B0FB2C480088ADF800000020002014
:103040000020002000201B48016811F00C0004281B
:1030500002D0082802D015E0174814E001A8C1F3F7
:103060008342805CC9030AD56946124A1268C2F3DA
:1030700040428A5C10494843B0FBF2F001E01B4932
:10308000484300E00C4805B000BD81B00B49096819
:10309000C9084FF47A72B1FBF2F14843009000BFC7
:1030A0000098411E00910028F9D101B0704700003E
:1030B000001002400410024000127A0014000020A8
:1030C0002410024080044242000042421C10024090
:1030D0000070004020100240600042420020024088
:1030E000643A0008543A0008160B000800093D0035
:1030F0007CB50400002000202078C00763D500259F
:103100003D480068C0000CD43B48006850F0805037
:10311000394908603848006810F0805000900098E5
:10312000012536480068C00513D43448006850F4BF
:1031300080703249086000F069F806002F48006886
:10314000C00506D400F062F8801B6528F6D3032082
:1031500050E02B48006810F44070002822D06168CD
:1031600011F4407188421DD02548006830F4407049
:103170000121244A11600021224A1160204908607F
:10318000C0070FD500F042F806001D480068800710
:1031900008D400F03BF8801B41F289318842F4D317
:1031A000032027E01648016831F44071606801434C
:1031B00013480160EDB2012D05D10F48006830F0D1
:1031C00080500D4908602078800707D50E480168B7
:1031D00031F44041A06801430B4801602078C006EB
:1031E00007D50948016831F48001E06801430648C9
:1031F0000160002076BD00001C10024000700040FD
:10320000201002404004424204100240014800687D
:10321000704700BFAC020020704770477047000045
:103220000021002801D101202BE00268DFF83C12C8
:103230008A181421B2FBF1F189000164DFF8301221
:10324000C163022180F8211001680A686FF30D1232
:10325000436881680B43C1680B4301690B434169B3
:103260000B4381690B43C1690B431A4301680A6030
:1032700000218163012180F82110002180F82010B5
:103280000020704770B50400002594F82000012844
:1032900001D1022037E0012084F8200094F82100B9
:1032A00001282AD1022084F821000020A063206890
:1032B00000684008400026683060200000F0E8F810
:1032C000E06A002806D02068006850F00E002168EF
:1032D00008600BE02068006830F004002168086096
:1032E0002068006850F00A002168086020680068C3
:1032F00050F001002168086003E0002084F82000FD
:1033000002252800C0B270BD10B5C16B0A68016803
:103310000B680424016C8C4022423DD059073BD5F8
:1033200001680968890605D40168096831F004015B
:103330000268116001684F4A914201D1042123E0E3
:1033400001684D4A914201D140211DE001684B4A7C
:10335000914202D14FF4806116E00168484A9142DF
:1033600002D14FF480410FE00168464A914202D1F8
:103370005FF4802108E00168434A914202D15FF482
:10338000800101E05FF08061404A1160C16A00295C
:103390006AD0C16A884767E00224016C8C402242EF
:1033A00043D0990741D501680968890608D40168A6
:1033B000096831F00A0102681160012180F82110CA
:1033C00001682C4A914201D1022123E001682A4A76
:1033D000914201D120211DE00168284A914202D189
:1033E0004FF4007116E00168254A914202D14FF472
:1033F00000510FE00168234A914202D15FF400318D
:1034000008E00168204A914202D15FF4001101E016
:103410005FF000711D4A1160002180F82010816A60
:10342000002921D0816A88471EE00824016C8C4065
:10343000224219D0190717D50168096831F00E0129
:10344000026811600122016C8A40C16B4A6001214F
:103450008163012180F82110002180F82010016B88
:10346000002901D0016B884710BD0000F8FFFDBFA7
:1034700000000240080002401C00024030000240F0
:1034800044000240580002406C0002400400024028
:1034900030B40125046CA540C46B656004686360AA
:1034A0004368102B04D103689A600068C16003E090
:1034B000036899600068C26030BC7047841A71EB81
:1034C000030603D2001BB141121973414FF4001CD3
:1034D0001CEB410F34BF7CEB430442E00C0DA4EB2A
:1034E0001356352E4FDC45EAC323DB0A45EAC121DA
:1034F000C912B6F120050DDD63FA05F6EB4086EA48
:103500000305124218BF45F00105C01851F1000132
:103510000CD213E062FA06F5F2405540F3415A40EE
:10352000B340F3405A408018594107D349085FEA35
:1035300030005FEA350528BF45F0010501F580112F
:10354000420875F1004250F1000041EB04514E0079
:1035500016F5001F70BC38BF70470020090D090523
:1035600070471CEB410F10D252EA43060BD0BCEB64
:10357000410F05D80C0DAB43661E342EB6DD02E0BC
:10358000AB438018594170BC704770BC7047000055
:1035900010F007003F490A684FF6FF010A403E4914
:1035A00051EA00210A433B480260704739480068ED
:1035B000C0F302207047012210F01F018A403749F2
:1035C00040B2400941F82020704740B2002808D599
:1035D0000901334A40B210F00F00104400F8041CF7
:1035E00003E009012F4A40B21154704710B410F0A3
:1035F0000700D0F10703052B01D3042301E0D0F12C
:103600000703041D072C01D2002000E0C01E012486
:1036100014FA03F35B1E19408140012313FA00F0F2
:10362000401E1040084310BC704780B5411EB1F1E8
:10363000807F01D301200EE0401E1B4908600F214E
:103640005FF0FF30FFF7C1FF002018490860072036
:1036500017490860002002BD80B5FFF799FF01BD42
:1036600070B504000D0016000020FFF79FFF320028
:103670002900FFF7BBFF0100200040B2FFF7A5FFC4
:1036800070BD80B540B2FFF796FF01BD80B5FFF772
:10369000CCFF02BD0CED00E00000FA0500E100E007
:1036A00018ED00E000E400E014E000E018E000E0C5
:1036B00010E000E010B504004FF47A700D4909786D
:1036C000B0FBF1F00C490968B1FBF0F0FFF7DEFF49
:1036D000002801D001200CE0102C09D2002221008A
:1036E0005FF0FF30FFF7BCFF04480460002000E0FB
:1036F000012010BD18000020140000201000002040
:1037000081B01148006850F001000F4908600E4870
:10371000006810F00100009000980C48006850F01C
:1037200080500A4908600948006810F080500090F5
:1037300000980748006830F0E06050F000700449DD
:10374000086001B0704700BF181002401C10024012
:1037500004000140704770477047704770477047DA
:1037600000B500BF130096469446103928BFA0E864
:103770000C50FAD85FEA417C28BF0CC048BF40F823
:10378000042BC90728BF20F8022B48BF00F8012BE3
:1037900000BD0000103A07D330B4B1E83810103A39
:1037A000A0E83810F9D230BC530724BFB1E80810A4
:1037B000A0E8081044BF51F8043B40F8043BD2078E
:1037C00024BF31F8022B20F8022B44BF0B78037082
:1037D0007047121F17D35B0009D151F8043B20F842
:1037E000023B1B0C121F20F8023BF6D20BE051F8F3
:1037F000043B00F8013B1B0A20F8023B1B0C121F84
:1038000000F8013BF3D238BF121D521E24BF11F83D
:10381000013B00F8013BF8D8704700007047FEE715
:10382000FEE7FEE7FEE770477047704780B500F09F
:1038300043F801BD80B51248FFF766FD01BD80B5B4
:103840004020FDF74FFF8020FDF74CFF4FF48070C4
:10385000FDF748FF01BD80B50A48FEF7E9FD01BD4F
:1038600080B50948FEF7E4FD01BD80B50748FEF7C5
:10387000DFFD01BD80B50648FEF7DAFD01BD0000A1
:103880001C00002060000020A0000020E0000020BC
:103890002001002080B54FF40060FDF723FF4FF4B6
:1038A0000050FDF71FFF4FF48040FDF71BFF4FF462
:1038B0000040FDF717FF01BD034801680348007889
:1038C0004118014801607047AC0200201800002038
:1038D0001348006850F00100114908601148016860
:1038E000114801400F4801600D4801680F48014030
:1038F0000B4801600A48006830F4802008490860DD
:103900000848006830F4FE00064908605FF41F00B4
:10391000074908605FF000600649086070470000D2
:1039200000100240041002400000FFF8FFFFF6FE06
:103930000810024008ED00E019E050F8042BD3070E
:1039400044BFA9F101039A18091F0023042942F872
:10395000043BF9D25FEA817C134604D54FF0000C9A
:10396000A2F800C09B1CC90744BF0021197050F881
:10397000041B0029E1D1704710B450F8041B79B141
:103980000268436802440830DC0744BFA9F101041F
:10399000E31852F8044B43F8044B091FF9D1ECE744
:1039A00010BC704710B5074979441831064C7C4467
:1039B000163404E00A68081D114488470146A142F4
:1039C000F8D110BD08000000280000006DFFFFFFC7
:1039D000940200001C000020000000009DFFFFFF7B
:1039E0001C00000054000000000000200000000047
:1039F00000F00DF8002801D0FFF7D4FFAFF30080EE
:103A00000020AFF30080FCF748FE00F002F8012030
:103A1000704700F001B800000746384600F002F891
:103A2000FBE7000080B5AFF30080024A11001820C8
:103A3000ABBEFBE72600020000005C42CDCC4C3E52
:103A40000000003FF40100001000000000A24A0442
:103A50000100000002030405060708090A0B0C0D0B
:103A60000E0F10100000000000000000010203040F
:103A7000060708090148804701480047D138000877
:103A8000853A0008AFF30080AFF30080FFF7B0FF86
:103A90000000000000000000000000000000000026
:103AA0000000000000000000000000000000000016
:103AB00000000000FFF7FEBFFFF7FEBFFFF7FEBFED
:103AC000FFF7FEBFFFF7FEBFFFF7FEBFFFF7FEBF2A
:103AD000FFF7FEBFFFF7FEBFFFF7FEBFFFF7FEBF1A
:103AE000FFF7FEBFFFF7FEBFFFF7FEBFFFF7FEBF0A
:103AF000FFF7FEBFFFF7FEBFFFF7FEBFFFF7FEBFFA
:103B0000FFF7FEBFFFF7FEBFFFF7FEBFFFF7FEBFE9
:103B1000FFF7FEBFFFF7FEBFFFF7FEBFFFF7FEBFD9
:103B2000FFF7FEBFFFF7FEBFFFF7FEBFFFF7FEBFC9
:103B3000FFF7FEBFFFF7FEBFFFF7FEBFFFF7FEBFB9
:043B4000FFF7FEBFCE
:0400000508003A8530
:00000001FF
